{
  "contractName": "Voting",
  "abi": [
    {
      "constant": true,
      "inputs": [
        {
          "name": "",
          "type": "bytes32"
        }
      ],
      "name": "votesReceived",
      "outputs": [
        {
          "name": "",
          "type": "uint8"
        }
      ],
      "payable": false,
      "stateMutability": "view",
      "type": "function"
    },
    {
      "constant": true,
      "inputs": [
        {
          "name": "",
          "type": "uint256"
        }
      ],
      "name": "candidateList",
      "outputs": [
        {
          "name": "",
          "type": "bytes32"
        }
      ],
      "payable": false,
      "stateMutability": "view",
      "type": "function"
    },
    {
      "inputs": [
        {
          "name": "candidateNames",
          "type": "bytes32[]"
        }
      ],
      "payable": false,
      "stateMutability": "nonpayable",
      "type": "constructor"
    },
    {
      "constant": true,
      "inputs": [
        {
          "name": "candidate",
          "type": "bytes32"
        }
      ],
      "name": "totalVotesFor",
      "outputs": [
        {
          "name": "",
          "type": "uint8"
        }
      ],
      "payable": false,
      "stateMutability": "view",
      "type": "function"
    },
    {
      "constant": false,
      "inputs": [
        {
          "name": "candidate",
          "type": "bytes32"
        }
      ],
      "name": "voteForCandidate",
      "outputs": [],
      "payable": false,
      "stateMutability": "nonpayable",
      "type": "function"
    },
    {
      "constant": true,
      "inputs": [
        {
          "name": "candidate",
          "type": "bytes32"
        }
      ],
      "name": "validCandidate",
      "outputs": [
        {
          "name": "",
          "type": "bool"
        }
      ],
      "payable": false,
      "stateMutability": "view",
      "type": "function"
    }
  ],
  "bytecode": "0x608060405234801561001057600080fd5b506040516104e43803806104e4833981018060405281019080805182019291905050508060019080519060200190610049929190610050565b50506100c8565b828054828255906000526020600020908101928215610092579160200282015b82811115610091578251829060001916905591602001919060010190610070565b5b50905061009f91906100a3565b5090565b6100c591905b808211156100c15760008160009055506001016100a9565b5090565b90565b61040d806100d76000396000f30060806040526004361061006d576000357c0100000000000000000000000000000000000000000000000000000000900463ffffffff1680632f265cf714610072578063392e6678146100bd5780637021939f14610106578063b13c744b14610151578063cc9ab2671461019a575b600080fd5b34801561007e57600080fd5b506100a160048036038101908080356000191690602001909291905050506101cb565b604051808260ff1660ff16815260200191505060405180910390f35b3480156100c957600080fd5b506100ec6004803603810190808035600019169060200190929190505050610279565b604051808215151515815260200191505060405180910390f35b34801561011257600080fd5b5061013560048036038101908080356000191690602001909291905050506102d8565b604051808260ff1660ff16815260200191505060405180910390f35b34801561015d57600080fd5b5061017c600480360381019080803590602001909291905050506102f8565b60405180826000191660001916815260200191505060405180910390f35b3480156101a657600080fd5b506101c9600480360381019080803560001916906020019092919050505061031b565b005b60006101d682610279565b151561024a576040517f08c379a00000000000000000000000000000000000000000000000000000000081526004018080602001828103825260118152602001807f496e76616c69642063616e64696461746500000000000000000000000000000081525060200191505060405180910390fd5b600080836000191660001916815260200190815260200160002060009054906101000a900460ff169050919050565b600080600090505b6001805490508110156102cd5782600019166001828154811015156102a257fe5b90600052602060002001546000191614156102c057600191506102d2565b8080600101915050610281565b600091505b50919050565b60006020528060005260406000206000915054906101000a900460ff1681565b60018181548110151561030757fe5b906000526020600020016000915090505481565b61032481610279565b1515610398576040517f08c379a00000000000000000000000000000000000000000000000000000000081526004018080602001828103825260118152602001807f496e76616c69642063616e64696461746500000000000000000000000000000081525060200191505060405180910390fd5b6001600080836000191660001916815260200190815260200160002060008282829054906101000a900460ff160192506101000a81548160ff021916908360ff160217905550505600a165627a7a72305820896e55fa181b5d7f03f97aa7379ecf7dea567b5e3122bc22da67ecbd9c88b4b40029",
  "source": "pragma solidity ^0.4.17;\r\n\r\ncontract Voting {\r\n  /* mapping field below is equivalent to an associative array or hash.\r\n  The key of the mapping is candidate name stored as type bytes32 and value is\r\n  an unsigned integer to store the vote count\r\n  */\r\n    mapping (bytes32 => uint8) public votesReceived;\r\n\r\n\t/* Solidity doesn't let you pass in an array of strings in the constructor (yet).\r\n\tWe will use an array of bytes32 instead to store the list of candidates\r\n\t*/\r\n\r\n    bytes32[] public candidateList;\r\n\r\n\t/* This is the constructor which will be called once when you\r\n\tdeploy the contract to the blockchain. When we deploy the contract,\r\n\twe will pass an array of candidates who will be contesting in the election\r\n\t*/\r\n    constructor (bytes32[] candidateNames) public {\r\n        candidateList = candidateNames;\r\n    }\r\n\r\n    // This function returns the total votes a candidate has received so far\r\n    function totalVotesFor(bytes32 candidate) public view returns (uint8) {\r\n        require(validCandidate(candidate), \"Invalid candidate\");\r\n        return votesReceived[candidate];\r\n    }\r\n\r\n    // This function increments the vote count for the specified candidate. This\r\n    // is equivalent to casting a vote\r\n    function voteForCandidate(bytes32 candidate) public {\r\n        require(validCandidate(candidate), \"Invalid candidate\");\r\n        votesReceived[candidate] += 1;\r\n    }\r\n\r\n    function validCandidate(bytes32 candidate) public view returns (bool) {\r\n        for(uint i = 0; i < candidateList.length; i++) {\r\n            if (candidateList[i] == candidate) {\r\n                return true;\r\n            }\r\n        }\r\n        return false;\r\n    }\r\n}",
  "sourcePath": "E:\\projects\\ethereum\\kj_hackathon\\contracts\\Voting.sol",
  "compiler": {
    "name": "solc",
    "version": "0.4.24+commit.e67f0147.Emscripten.clang"
  },
  "schemaVersion": "2.0.1",
  "updatedAt": "2018-09-20T06:25:59.490Z"
}